:100000000C949A070C94B7070C94B7070C946220D1
:100010000C94B7070C94B7070C94B7070C94B70768
:100020000C94B7070C94B7070C94B7070C94B70758
:100030000C94B7070C94B7070C9437200C94B707AF
:100040000C94B7070C94B7070C94B7070C94B70738
:100050000C94B7070C94B7070C94B7070C94B70728
:100060000C94B7070C94B7070000000000000000D4
:100070000000000000000000000000000000000080
:100080000000000000000000000000000000000070
:100090000000000000000000F03F03F03F030000FC
:1000A0000000000000000000000000000000000050
:1000B000000000000000FC0000FC00000000000048
:1000C0000000FC0000FC0000000000000000000038
:1000D00000000000C00C00C00C00F03F00F03F002A
:1000E000C00C00C00C00F03F00F03F00C00C00C08E
:1000F0000C00000000000000C0C300E0C701708ECB
:1001000003300C03FCFF0FFCFF0F300C03709C034B
:10011000E0F801C0F000000000000000C0C303E0F0
:10012000E703307C00303C00F0FF00F0FF01300FAF
:1001300003B00F03F0F901F0F00000000000000030
:10014000C0F300E0FF01709E03301E03303F03B098
:10015000F303F0E101E0E00100F0030030030000F0
:10016000000000000000000000000000000000008F
:10017000FC0000FC00000000000000000000000087
:100180000000000000000000000000000000C0FFB0
:1001900000E0FF017080033800071C000E0C000C0B
:1001A000000000000000000000000000000000004F
:1001B00000000C000C1C000E380007708003E0FFEC
:1001C00001C0FF000000000000000000000000006F
:1001D000C00C00C00C00800700800700F03F00F05A
:1001E0003F00800700800700C00C00C00C0000002A
:1001F00000000000000C00000C00000C00000C00CF
:10020000C0FF00C0FF00000C00000C00000C00004C
:100210000C000000000000000000000000000000D2
:100220001000C03800E01D00E00F00C00700000013
:1002300000000000000000000000000000000000BE
:100240000000000C00000C00000C00000C00000C72
:1002500000000C0000000000000000000000000092
:1002600000000000000000000000C00000E00100ED
:10027000E00100C0000000000000000000000000DD
:100280000000000000003000003C00000F00C00330
:1002900000F000003C00000F00C00300F000003C34
:1002A00000000C0000000000C0FF00E0FF0170F043
:1002B00003303803301C03300E03300703F0830390
:1002C000E0FF01C0FF00000000000000000003C0CC
:1002D0000003C00003C00003F0FF03F0FF030000B1
:1002E0000300000300000300000300000000000002
:1002F000C00003E0800370C00330E00330700330BF
:100300003803301C03700E03E00703C00303000032
:1003100000000000C0C000E0C00170800330000396
:10032000300C03300C03300C03709E03E0FB01C063
:10033000F100000000000000003C00003E0000371B
:1003400000803300C03103E03003F0FF03F0FF030F
:10035000003003003003000000000000F0C300F094
:10036000C30130830330030330030330030330033E
:100370000330870330FE0130FC0000000000000065
:10038000C0FF00E0FF01708303300303300303303C
:10039000030330030330870300FE0100FC0000006C
:1003A000000000003000003000003000003000008D
:1003B00030F00330F803301C00300E00F00700F07E
:1003C0000300000000000000C0F100E0FB01709E8F
:1003D00003300C03300C03300C03300C03709E030D
:1003E000E0FB01C0F100000000000000C00F00E0D1
:1003F0001F007038033030033030033030033030AA
:100400000370B003E0FF01C0FF0000000000000027
:1004100000000000000000000000C30080E7018031
:10042000E70100C300000000000000000000000021
:100430000000000000000000000000001000C338B1
:1004400080E71D80E70F00C30700000000000000E8
:100450000000000000000000000000000000000C90
:1004600000001E00003F00807300C0E100E0C001FA
:100470007080033000030000000000000033000023
:10048000330000330000330000330000330000333A
:1004900000003300003300003300000000000000C3
:1004A000000000000000300003708003E0C001C0C5
:1004B000E100807300003F00001E00000C000000FF
:1004C00000000000C00000E00000700000300000EC
:1004D000303003303803301C00700E00E00700C0DD
:1004E0000300000000000000C0FF00E0FF0170807A
:1004F00003300003301E03303F03303303703303F7
:10050000E03F03C01F0300000000000000F80300EC
:10051000FE03803700E03100703000703000E031C1
:100520000080370000FE0300F80300000000000018
:10053000F0FF03F0FF03300C03300C03300C0330EA
:100540000C03300C03709E03E0FB01C0F1000000BF
:1005500000000000C0FF00E0FF01708003300003D6
:10056000300003300003300003708003E0C001C09E
:10057000C000000000000000F0FF03F0FF033000A7
:1005800003300003300003300003300003708003A9
:10059000E0FF01C0FF00000000000000F0FF03F0DA
:1005A000FF03300C03300C03300C03300C03300C11
:1005B00003300C0330000330000300000000000093
:1005C000F0FF03F0FF03300C00300C00300C003063
:1005D0000C00300C00300C00300000300000000037
:1005E00000000000C0FF00E0FF0170800330000346
:1005F000300003300003300C03708C03E0FC01C0BA
:10060000FC00000000000000F0FF03F0FF03000CFE
:1006100000000C00000C00000C00000C00000C009E
:10062000F0FF03F0FF030000000000003000033083
:100630000003300003300003F0FF03F0FF0330003D
:10064000033000033000033000030000000000000E
:1006500000F00000F0010080030000030000030030
:100660000003000003008003F0FF01F0FF00000022
:1006700000000000F0FF03F0FF03000E00001F0069
:10068000803B00C07100E0E00070C00130800310CA
:100690000003000000000000F0FF03F0FF03000073
:1006A0000300000300000300000300000300000338
:1006B000000003000003000000000000F0FF03F052
:1006C000FF03E00000C00100800F00800F00C001A8
:1006D00000E00000F0FF03F0FF0300000000000056
:1006E000F0FF03F0FF03E00000C001008003000002
:1006F0000700000E00001C00F0FF03F0FF030000E5
:1007000000000000C0FF00E0FF0170800330000324
:10071000300003300003300003708003E0FF01C0AD
:10072000FF00000000000000F0FF03F0FF03300CAA
:1007300000300C00300C00300C00300C00700E004B
:10074000E00700C00300000000000000C0FF00E060
:10075000FF0170800330000330C00330C0033080DD
:1007600003708007E0FF0FC0FF0C000000000000D6
:10077000F0FF03F0FF03300C00300C00300C0030B1
:100780000C00300C00701E00E0FB03C0F103000001
:1007900000000000C0C300E0C701708E03300C03EE
:1007A000300C03300C03300C03709C03E0F801C0E4
:1007B000F0000000000000003000003000003000B9
:1007C00000300000F0FF03F0FF03300000300000B5
:1007D000300000300000000000000000F0FF00F0DA
:1007E000FF0100800300000300000300000300007D
:1007F00003008003F0FF01F0FF0000000000000094
:10080000F00300F00F00003C0000F00000C0030007
:10081000C00300F000003C00F00F00F003000000F7
:1008200000000000F0FF03F0FF0300C00100E00043
:10083000007C00007C0000E00000C001F0FF03F03D
:10084000FF03000000000000F0C003F0E10380732C
:1008500000003F00001E00001E00003F00807300EB
:10086000F0E103F0C003000000000000F00300F01E
:100870000700000E00001C0000F80300F803001C35
:1008800000000E00F00700F0030000000000000070
:1008900030C00330E003307003303803301C0330C5
:1008A0000E03300703B00303F00103F00003000060
:1008B0000000000000000000000000000000000038
:1008C000FCFF0FFCFF0F0C000C0C000C00000000E4
:1008D00000000000000000000000000C00003C00D0
:1008E00000F00000C00300000F00003C0000F0001A
:1008F00000C00300000F00003C00003000000000BA
:1009000000000C000C0C000CFCFF0FFCFF0F0000A3
:1009100000000000000000000000000000000000D7
:10092000000100800300C00100E0000070000070C2
:100930000000E00000C00100800300000100000092
:1009400000000000000030000030000030000030E7
:1009500000003000003000003000003000003000A7
:1009600000300000300000300000000000000C00EB
:10097000001C0000380000300000000000000000F3
:1009800000000000000000000000000000FC00006B
:10099000FE0100870300030300030300830300C379
:1009A0000100E30000FF0300FF030000000000005F
:1009B000F0FF03F0FF030003030003030003030041
:1009C000030300030300870300FE0100FC00000096
:1009D0000000000000FC0000FE010087030003038C
:1009E000000303000303000303000703000E0300DA
:1009F0000C0300000000000000FC0000FE01008766
:100A000003000303000303000303000303000303C5
:100A1000F0FF03F0FF0300000000000000FC0000F6
:100A2000FE0100B703003303003303003303003338
:100A300003003703003E03003C03000000000000F9
:100A4000000000000000000300000300C0FF03E0FE
:100A5000FF0370030030030030000030000000008E
:100A60000000000000FC0000FE010087330003339B
:100A700000033300033300033300033B00FF1F0078
:100A8000FF0F000000000000F0FF03F0FF03000371
:100A90000000030000030000030000030000070043
:100AA00000FE0300FC030000000000000000000046
:100AB000000000030300030330FF0330FF030000C6
:100AC0000300000300000000000000000000000020
:100AD00000003000003000033000033830FF1F30CA
:100AE000FF0F0000000000000000000000000000F8
:100AF00000000000F0FF03F0FF030070000038006A
:100B0000003C00007E0000E70000C30100810300FC
:100B100000030000000000000000000000003000A2
:100B200003300003F0FF03F0FF03000003000003A5
:100B300000000000000000000000000000FF0300B3
:100B4000FF0300030000030000FF0300FF03000396
:100B50000000070000FE0300FC030000000000008E
:100B600000FF0300FF03001C00000E000007000050
:100B7000030000030000070000FE0300FC03000068
:100B80000000000000FC0000FE01008703000303DA
:100B900000030300030300030300870300FE0100BA
:100BA000FC0000000000000000FF3F00FF3F0003CA
:100BB0000300030300030300030300030300870390
:100BC00000FE0100FC0000000000000000FC00002E
:100BD000FE01008703000303000303000303000377
:100BE0000300030300FF3F00FF3F00000000000080
:100BF00000FF0300FF03001C00000E0000070000C0
:100C00000300000300000700000E00000C000000BD
:100C100000000000000C03001E0300330300330338
:100C200000330300330300330300330300E3010008
:100C3000C3000000000000000000000000000003EE
:100C400000000300F0FF00F0FF0100830300030336
:100C500000000300000300000000000000FF00008F
:100C6000FF0100800300000300000300800300C0B8
:100C70000100E00000FF0300FF030000000000008F
:100C8000000700001F0000780000E0010080030062
:100C9000800300E001007800003F00000700000032
:100CA0000000000000FF0000FF010000030000033F
:100CB00000FF0100FF0100000300000300FF01002E
:100CC000FF0000000000000000030300870300CEC7
:100CD0000100FC0000780000780000FC0000CE015C
:100CE00000870300030300000000000000FF000075
:100CF000FF010080330000330000330000330000A8
:100D00003300003B00FF1F00FF0F00000000000049
:100D100000030300830300C30300E3030073030025
:100D20003B03001F03000F03000703000303000041
:100D300000000000000000000000000C00001E0089
:100D4000FCFF0FFEF31F0700380300300000000017
:100D50000000000000000000000000000000000093
:100D600000000000FCFF0FFCFF0F0000000000006F
:100D70000000000000000000000000000000000073
:100D80000000030030070038FEF31FFCFF0F001EB9
:100D900000000C0000000000000000000000000047
:100DA000000C00000E00000300000300000600001D
:100DB0000600000C00000C0000070000030000000B
:100DC0000000000000000000000000000000000023
:100DD0000000000000000000000000000000000013
:100DE0000000000000000000040C1C3C7CFC7C3C6B
:100DF0001C0C042030383C3E3F3E3C3830205465CB
:100E00006D706F50756C736557506861736553777B
:100E1000696E6745786974D022E7D520F8E938A172
:100E20004E188C47308CFEF5FFF7F728B9F8FBF524
:100E30001C7CCCCC4C24016B1CEAA3CAE0F580A737
:100E4000CC095CD936EFAEAD66C1BDBE79646CA786
:100E50002C2B4DB4CC085146DF0B2618FED2D2B154
:100E60002051C3F37D08A970206135C30DCB092F34
:100E7000687D75727CA5CBB5EBC1CE46B4AE00A73C
:100E8000B529A41E747FC6F59257E095CE3904C0EB
:100E9000D241D281F0B269E46CF5948C2823C32648
:100EA0003A41CFD7FD4155D04C3E03ED3759E8329A
:100EB000D940F49DC779FC5A11D4CB95988CBBEAE4
:100EC000B149AEC164C08F6135918713670D5A87F0
:100ED00097C75BEFF721279165786303BA566329BB
:100EE000EDCB6F4FDC879E2A1E9A784357A787B0B9
:100EF000B7BFFD73B815E93A81E98E2780D37689AB
:100F00008BFF7214DA719A1B7FF6FA0108C6FAD1C8
:100F10005CDEAD155866DB00010400020100000232
:100F2000010300020003100500040005060400058B
:100F30000600200011241FBECFEFD8E0DEBFCDBFDA
:100F400015E0A0E0B1E0E2EAF8E502C005900D92FC
:100F5000A23EB107D9F725E0A2EEB5E001C01D928F
:100F6000A93EB207E1F70E94E6200C944F2C0C94A6
:100F700000006F927F928F929F92AF92BF92CF921A
:100F8000DF92EF92FF920F931F93CF93DF93CDB732
:100F9000DEB7C058D0400FB6F894DEBF0FBECDBF4D
:100FA000DB012C9123306C010CF438C025300CF09F
:100FB0006DC0233009F0C5C0FD0183819481880F85
:100FC000991F8030910509F453C2FD01A181B281BE
:100FD000F601308121E0303009F0212D8A0F9B1F6E
:100FE0003D91422F4170403029F00DC0422B41709D
:100FF000403049F45DB541E05523C2F3412D422B09
:1010000041704030B9F33EBD2DB52223EAF710827E
:101010002EB521E0A817B90719F72AC2FD01203023
:1010200009F4DBC0213009F007C183819481880F66
:10103000991F8030910509F41BC2FD01A181B28185
:10104000F601308121E0303009F0212D8A0F9B1FFD
:101050003D91422F4170403029F00DC0422B41702C
:10106000403049F45DB541E05523C2F3412D422B98
:1010700041704030B9F33EBD2DB52223EAF710820E
:101080002EB521E0A817B90719F7F2C1FD012530E7
:1010900009F019C101811281E380F480CE0101962B
:1010A00040E850E05C01612D0E94482CF701E68089
:1010B000F780C801F7010995F501272F382F6170D6
:1010C000603009F4D5C180E090E03C014C010AC0D9
:1010D000C801F7010995272F382F61706030F5019D
:1010E00009F43DC1D401CD01880F991F5F018E0F16
:1010F0009F1FA901452F5527322F2227242B352B3F
:10110000FC01208331831196A0344D01B10501F714
:10111000F6012081C301D501A80FB91F3C910196AA
:10112000203019F02DB52223EAF73EBD2DB522233C
:10113000EAF710822EB580389105212D61F7430121
:10114000C7CFFD0101811281E380F480CE010196B9
:1011500040E250E05C01612D0E94482CF701E680DE
:10116000F780C801F7010995D50181708030F6013B
:1011700009F47EC120E030E03901490109C0C8010D
:10118000F7010995F60181708030D50109F416C187
:101190009F015D01F401AE0FBF1F9C933196E032B9
:1011A0004F01F10561F7F9012081C301D501A80FB5
:1011B000B91F3C910196203019F02DB52223EAF792
:1011C0003EBD2DB52223EAF710822EB5803291055F
:1011D000212DD50161F74301D2CF838194818030E5
:1011E000910509F445C1FD01A181B281F60130816B
:1011F00021E0303009F0212D8A0F9B1F3D91422FB5
:101200004170403029F00DC0422B4170403049F40C
:101210005DB541E05523C2F3412D422B4170403072
:10122000B9F33EBD2DB52223EAF710822EB521E099
:10123000A817B90719F71CC1238134812030310563
:1012400009F416C1FD01A181B281220F331FCD0126
:10125000820F931F8D01FD0140815181BA01672FDB
:101260007727542F4427462B572B4D935D93A81770
:10127000B90789F720303105D601F80109F4F8C023
:101280003C9121E0303009F0212D3191422F417005
:10129000403029F00DC0422B4170403049F45DB51B
:1012A00041E05523C2F3412D422B41704030B9F348
:1012B0003EBD2DB52223EAF71C922EB521E0E8179A
:1012C000F90719F7D5C001811281E380F480CE01BE
:1012D000019640E450E05C01612D0E94482CF7012A
:1012E000E680F780C801F7010995F501617060306B
:1012F00009F4BEC020E030E03901490108C0C8014E
:10130000F701099561706030F50109F483C0D401DB
:101310009D01220F331F5F012E0F3F1FF9017083C4
:1013200081831196A0324D01B10549F7F601208164
:10133000C301D501A80FB91F3C910196203019F0C7
:101340002DB52223EAF73EBD2DB52223EAF7108200
:101350002EB580349105212D61F74301D0CFC40112
:1013600080309105D60109F483C09C9181E09030D2
:1013700009F0812D880C991C8E0E9F1EA40191915D
:10138000282F2170203029F00DC0282B217020300B
:1013900049F43DB521E03323C2F3212D282B2170E0
:1013A0002030B9F39EBD8DB58823EAF71C928EB527
:1013B00081E09A01E217F30711F75AC0C4018030A7
:1013C000910509F455C0908181E0903009F0812D9C
:1013D0008A0E9B1EA4019D91282F2170203029F098
:1013E0000DC0282B2170203049F43DB521E0332376
:1013F000C2F3212D282B21702030B9F39EBD8DB56D
:101400008823EAF710828EB581E09A01A217B3070C
:1014100011F72EC0C40180309105D60109F428C00F
:101420009C9181E0903009F0812D880C991C8E0EE2
:101430009F1EA4019191282F2170203029F00DC00A
:10144000282B2170203049F43DB521E03323C2F32D
:10145000212D282B21702030B9F39EBD8DB5882316
:10146000EAF71C928EB581E09A01E217F30711F7B3
:10147000C058DF4F0FB6F894DEBF0FBECDBFDF916F
:10148000CF911F910F91FF90EF90DF90CF90BF9081
:10149000AF909F908F907F906F900895AF92BF9282
:1014A000CF92DF92EF92FF920F931F93CF93DF9330
:1014B000CDB7DEB72F970FB6F894DEBF0FBECDBF06
:1014C000DC011C915D018FE08D83198202E0012710
:1014D000A02FBB277D01A353BA4F8C918A83F501BE
:1014E0003296CE0101966F01BF010E94BB0AF50141
:1014F00081818230A9F0003019F0103009F033C03A
:10150000D701A753BA4F8C9190E19A871E82869596
:10151000869586958F83CE010696B6010E94BB0AFA
:1015200080E094E08E879F8789EB91E08C879D8790
:101530001B864498439ABE01655F7F4FC6010E9497
:10154000B907449A2F960FB6F894DEBF0FBECDBFF1
:10155000DF91CF911F910F91FF90EF90DF90CF908F
:10156000BF90AF90089585ED95E06DE070E00E942A
:10157000692B0E94432C0F931F93CF93DF93CDB71A
:10158000DEB72C970FB6F894DEBF0FBECDBFDC01DF
:10159000FD018481982F9350833008F495E09D30AD
:1015A00074F09431DCF490310CF434C092310CF0CE
:1015B0006AC0903109F083C08C91806AC6C09630B1
:1015C000ECF099300CF42FC09B300CF065C09930D2
:1015D00009F07AC08C918F708061B7C097310CF49C
:1015E0002FC099310CF060C0973109F076C09C9102
:1015F0009295907F22E030E08BEDAAC093300CF002
:1016000030C0903009F46DC0913009F06FC08C91FA
:10161000846A9BC09D3009F46CC09E3009F070C094
:101620008C91806B92C0963009F46EC0973009F0AF
:101630006EC0FD0141819C9123E030E083EA89C0C6
:10164000943109F467C0953109F072C0FD018181C0
:101650008F709C919295907F982B22E030E085EDE1
:1016600077C0933009F46FC0943009F099C0FD0140
:10167000528101814C918381866227E030E0AFEF97
:10168000912D112D6AC0923109F094C08C91880F70
:10169000880F880F806C59C09B3009F090C09C91D6
:1016A00022E030E080E254C0993109F08FC09C9173
:1016B000990F990F906122E030E08DE849C09C912C
:1016C00022E030E088EA44C09C91892F8F70929587
:1016D0009F70906122E030E03BC021E030E083EE7B
:1016E00036C09C9122E030E081E832C08C91866A5D
:1016F0002CC0FD0141819C9123E030E082E229C0B1
:101700008C918F73806421C08C918E621EC08C91ED
:101710008F701BC08C918295807FFD019181929585
:10172000907F990F982B926022E030E08AED10C0F4
:101730008C918F70FD0191819295907F982B22E082
:1017400030E089ED05C08C918E6A21E030E0912D6A
:10175000412D512D012D112DA12DAF831E830D8300
:101760005C834B839A8389832B873C87CE010196C8
:1017700089879A871886449843989E01285F3F4F2F
:10178000CB01B9010E94B907449A2C960FB6F89480
:10179000DEBF0FBECDBFDF91CF911F910F91089596
:1017A00088621C91FD0153810281418126E030E075
:1017B000912DD2CF9C9122E030E083EDC9CFFD0185
:1017C00041819C9123E030E081E2C3CF8C918295EE
:1017D000807FFD0191819295907F990F982B22E057
:1017E00030E08DEAB5CF2F923F924F925F926F9289
:1017F0007F928F929F92AF92BF92CF92DF92EF92A1
:10180000FF920F931F93CF93DF93CDB7DEB7A597CA
:101810000FB6F894DEBF0FBECDBF3B014C0188EE82
:1018200093E000E010E05C01680178010E94712BF8
:10183000C901F30140805180E280F3808419950949
:101840004E095F098E8A9F8AF40120A1203009F495
:10185000B8C2F301A680B780C480D58049835A837B
:101860002D8B332760E077E88B839C8383E993E0BB
:1018700040E050E00E94072C6B817C81A981BA81F5
:1018800081E0261737074A075B0708F0812D817032
:10189000F301803009F428C0008511858285938585
:1018A0000F5F1F4F8F4F9F4F0C8F1D8F008711872A
:1018B0008A8F9B8F8287938780E090E0420E531E31
:1018C000E41EF51EC81ED91EA81EB91EA682B78228
:1018D000C482D582E282F38240825182621B730B02
:1018E000CD01840B950B09C0828593858A8F9B8FD0
:1018F000808591858C8F9D8FCD0179016A012AE0C9
:1019000030E06F8378878D839E83590100E010E07B
:10191000A8010E94072C2B8B3C8B498B5A8BEB86A2
:10192000FC86B701C986DA86C6019501A8010E9426
:10193000072C2F87388B4D875E87B12CA12CAA2DC1
:10194000BB27AA0FBB1FAA0FBB1F8E899F89A80F99
:10195000B91FAAA3BBA38C919D89923350F4803EFA
:101960008B889C8829893A89EF84F8884D845E8425
:1019700074F082300CF05BC080308F8098842D81B1
:101980003E81EB84FC8449845A8409F412C2288F76
:10199000398F982F990F990B8927891BC82ED82E1C
:1019A000DD0CDD081601330C3308232C6C8D7D8D86
:1019B0008A8D9B8D9601A1010E94072C89013A0115
:1019C000C8018170907021E08030910580E090E046
:1019D0008807990709F0212D2E8F3F8FB701C2018B
:1019E0009601A1010E94F72B6CA37DA388A399A364
:1019F000B801C3019601A1010E94F72B2C8D3D8DEA
:101A0000261B370B4A8D5B8D480B590BB901CA0158
:101A10009701A2010E94F72B2B011C01480C591CB5
:101A2000888D998D281E391E00E010E048C0E82EF0
:101A3000FF246B857C8589859A85970140E050E07D
:101A40000E94072C40305105C90109F0A4C081E073
:101A500090E02230310508F4A2C04030510509F071
:101A60009C014F8058844901B2012D803E80C10104
:101A70006A010E94072C8901B801CA018CA29DA2AB
:101A80009401C8A2D9A2A6010E94F72B461A570AB0
:101A9000280A390A0170107081E00030110500E059
:101AA00010E00007110709F0812D6C8D7D8D9701E5
:101AB000A801F82E0E94F72B6F256E8F7F8FEAA169
:101AC000FBA19381892F8195282F22230AF433C00B
:101AD0009030A8A1B9A16CA17DA109F46FC0282FF5
:101AE00033276CA17DA1CD01A8010E94F72B24E62C
:101AF00030E0A8010E94072C6CA17DA1A8A1B9A18A
:101B0000240D351D421D531D81E062177307A40784
:101B1000B50708F4812D8170803051F4261B370BF6
:101B20004A0B5B0B81E0EE8DFF8DE827EE8FFF8F78
:101B300029011A0143C0292F392F330F330BA90173
:101B4000550F550B452F6CA17DA188A199A10E942D
:101B5000F72B24E630E0A8010E94072C81E0421612
:101B600053062406350608F4812D81708030F1F487
:101B70006CA17DA1460E571EA8A1B9A12A1E3B1E2D
:101B8000421A530A240A350A81E02E8D3F8D2827F8
:101B90002E8F3F8F13C02230310508F05ECF21E039
:101BA00030E04030510509F05BCF5BCF421A530A59
:101BB000240A350AA8A1B9A16CA17DA19B012A50D4
:101BC0003040AD014040504081E062177307A407E8
:101BD000B50791E008F423C0912D9030680109F415
:101BE00021C09030A80109F4A9014B305105C0066D
:101BF000D10608F0812D81708030C9F0CB01969517
:101C000087958D01102F1295107F0027110F110F4E
:101C1000110F082B192B7D01F694E79455C09030D5
:101C20006801F9F66A019030A801F9F6DDCFEAA162
:101C3000FBA18281803009F442C084368A0176019A
:101C400009F442C04A01282F3327CD0100E010E0FB
:101C5000A8010E94F72B7C013B0124E630E0A8019B
:101C60000E94072C4C155D05C90108F0C401B401A0
:101C70002617370708F094014C155D05A8A1B9A1F6
:101C80006CA17DA109F09C0181E0F301E83E93E0A5
:101C9000F907E006F10608F0812D817080300AE036
:101CA00010E009F489014C155D0508F0A6018030AB
:101CB00080E090E07C0109F47A01A40105C00AE00B
:101CC00010E080E090E07C012A2D23958E8D9F8D81
:101CD0008170803051F081E0401651062E043F049F
:101CE00008F433C0812D817033C0922E44165506FE
:101CF0002C043D0481E008F0812D882EEAA1FBA18F
:101D00008181282F3327CD0140E050E06A010E94F5
:101D1000F72B24E630E0A6010E94072C2415350598
:101D20004205530581E008F0812D200F311F4E1D23
:101D30005F1D421653062406350691E008F0912DEA
:101D4000892388218170292D03C0817001C0880FEB
:101D5000AA94EAF7B82A2830A22E09F0F0CD91E033
:101D60002B813C814B855C854217530729813A8141
:101D700049855A854207530708F0912D91708B2DA4
:101D8000A5960FB6F894DEBF0FBECDBFDF91CF9101
:101D90001F910F91FF90EF90DF90CF90BF90AF9089
:101DA0009F908F907F906F905F904F903F902F907B
:101DB000089580E891E069E370E00E94692B0E9439
:101DC000432C80E691E069E170E00E94692B0E945B
:101DD000432C9C01CB018038910538F4F901E80FC0
:101DE000F91FDA018C918083CB01DC011196A038B8
:101DF000B10538F4C901A80FB91FFA0181818C938C
:101E0000CB01DC011296A038B10538F4C901A80F46
:101E1000B91FFA0182818C93CB01DC011396A038A3
:101E2000B10538F4C901A80FB91FFA0183818C9359
:101E3000CB01DC011496A038B10538F4C901A80F14
:101E4000B91FFA0184818C93CB01DC011596A0386F
:101E5000B10538F4C901A80FB91FFA0185818C9327
:101E6000CB01DC011696A038B10538F4C901A80FE2
:101E7000B91FFA0186818C93CB01DC011796A0383B
:101E8000B10538F4C901A80FB91FFA0187818C93F5
:101E9000CB01DC011896A038B10538F4C901A80FB0
:101EA000B91FFA0180858C93CB01DC011996A0380B
:101EB000B10528F00A968038910560F00895C901AF
:101EC000A80FB91FFA0181858C93CB010A9680383F
:101ED0009105A0F7D901A80FB91FFA0182858C934B
:101EE00008952F923F924F925F926F927F928F92BE
:101EF0009F92AF92BF92CF92DF92EF92FF920F9399
:101F00001F93CF93DF93CDB7DEB7A4970FB6F894A6
:101F1000DEBF0FBECDBFDB0140308A01510509F4A1
:101F200043C13CE0A8015302602D1124439FE12DE1
:101F30001124E60FFE2FEE27602D77276E2B7F2BC7
:101F400076956795E0E2F0E0E61BF70B31E0E132D1
:101F5000F10508F4312D303011F0E0E0F0E00A0F27
:101F60001B1F480152EFBE016F5F7F4F43E0277098
:101F700007C03C968401D701A017B10709F414C12A
:101F80005F013D916D013052E4E23E9FE12D11244D
:101F9000A02DBB27FE2FEE27EA2BFB2BDF01AD5533
:101FA000BD40AF37B50708F418C1E859FF4F34E218
:101FB000DB01F590FD923150E1F7312D7601F5010D
:101FC00038C0EC91EF2BEC933101F301E180FE2D51
:101FD000F295F07FFF0FF694F694F694FF2AD8015D
:101FE000A160A80FB91FFC91FF29FC93E694E69429
:101FF000E694F301F280FF2DF295F07FFF0FFE29AA
:10200000D801A260A80FB91FEC91EF2BEC93F694C6
:10201000F694F6940360DC01A00FB11FEC90D80198
:10202000EF28A80FB91FEC927601F5013C3009F4B6
:10203000A0CF349FA12D1124032F11270E0F1F1F96
:1020400033950034110590F7E02DFF27BA2FAA270A
:10205000AE2BBF2B000F111F000F111F0C7F1F7124
:10206000A60FB71FFC90FF2DF295F07FFF0F2230D7
:102070001D010CF02EC0203009F067C03101DC01D9
:10208000A00FB11FFC93F801E160E80FF91F2F01C9
:10209000F301A181BA2FB295B07FBB0FF694F694ED
:1020A000F694FB2AF201F082A695A695A695F30177
:1020B000E280EE2DE295E07FEE0FEA2BD801A260E0
:1020C000A80FB91FEC93D801E694E694E694A360B8
:1020D000A8CFDC01A00FB11F223009F472CFEC9120
:1020E000F095FE23FC93F801E160E80FF91F310140
:1020F000A0812F01F301E180BE2DB295B07FBB0F0F
:10210000F694F694F694FB2AF094FA22D201FC920B
:10211000E694E694E6947280F72DF295F07FFF0F37
:10212000FE29F095D801A260A80FB91FFC90FF22EC
:10213000FC9276947694769470940360DC01A00F00
:10214000B11FEC90D801E7206CCFDC01A00FB11FCC
:10215000F095FC93F801E160E80FF91F2F013101C0
:10216000F301A181BA2FB295B07FBB0FF694F6941C
:10217000F694FB2AF094F201F082A695A695A69516
:10218000F301E280EE2DE295E07FEE0FEA2BE09581
:10219000D801A260A80FB91FEC93D801E694E69489
:1021A000E694E094A3603DCFA4960FB6F894DEBF0A
:1021B0000FBECDBFDF91CF911F910F91FF90EF9098
:1021C000DF90CF90BF90AF909F908F907F906F9057
:1021D0005F904F903F902F9008958BE291E065E3E0
:1021E00070E00E94692B0E94432C2F923F924F92E5
:1021F0005F926F927F928F929F92AF92BF92CF9297
:10220000DF92EF92FF920F931F93CF93DF93CDB79F
:10221000DEB7A4970FB6F894DEBF0FBECDBF6A013C
:10222000DB012C01CA0EDB1E42E050E04A0112EF36
:10223000AE014F5F5F4F3A0103E0277008C0F40121
:102240003C964F01D501AC15BD0509F4F1C06D9167
:102250005D01605234E2639FE12D1124602D7727E8
:10226000FE2FEE27E62BF72BBF016D557D406F3714
:10227000710708F4F6C0E859FF4F64E2D301759185
:102280007D936150E1F7312D1FC0F094F0821F0162
:102290007D01F7014181542F550F661F6627661F88
:1022A000652B6095DC01F1016183441F4427441FC5
:1022B000F7016281660F642B60951296A40DB51D1F
:1022C0006C933C3009F4BBCF309FF02DA12D11242D
:1022D000432F5527B401460F571F5002F02C1124ED
:1022E000409F612D112433954A34510550F74F2FEB
:1022F0005527BA2FAA27A42BB52B6F0D762F66274B
:10230000802D9927862B972BA301A40FB51F6C91C5
:10231000F62EFF0C22300CF42BC0223009F444C0FE
:10232000233009F063C01201280E391EF1014081EB
:10233000F094F422F0824181FD015181752F770FD5
:10234000661F6627661F672B60956423F101618312
:10235000551F5527551FFD014281440F452B4095C0
:102360000296D201A80FB91F6C91DC016423A6CF9D
:10237000F201E80FF91F203009F087CFF0821F012A
:102380007D01F7014181542F550F661F6627661F97
:10239000652BDC01F1016183441F4427441FF701D1
:1023A0006281660F642B89CFF201E80FF91F40812B
:1023B0004F2940837F01FD014181542F550F661F36
:1023C0006627661F652BF7015181562B5183441FE9
:1023D0004427441FFD015281550F542B0296D20110
:1023E000A80FB91F6C91DC01652B68CFF201E80FD3
:1023F000F91F40814F2540837F01FD014181542F0A
:10240000550F661F6627661F652BF70151815627FA
:102410005183441F4427441FFD015281550F542B03
:102420000296D201A80FB91F6C91DC01652746CF37
:10243000A4960FB6F894DEBF0FBECDBFDF91CF914B
:102440001F910F91FF90EF90DF90CF90BF90AF90D2
:102450009F908F907F906F905F904F903F902F90C4
:1024600008958BE291E065E370E00E94692B0E9481
:10247000432C0F931F93DB0120E430E0A034B1051F
:1024800008F0D9014A0F5B1F4034510508F0A9013B
:10249000A417B50708F033C021E03FEFFD01EE0FB0
:1024A000FF1FEE0FFF1FEC7FFF71E030F20708F017
:1024B00030C08D01DC01AE0FBF1F6C91606E6C935C
:1024C000DF01A160A030B207E8F4A80FB91F3C9368
:1024D000DF01A260A030B207A8F4A80FB91F3C9397
:1024E000E360E030F207A8F4D8011196E80FF91F75
:1024F000608167606083A417B50708F4CFCF1F9190
:102500000F91089560E071E0CD010E94652B0E945B
:10251000432C60E071E0CF010E94652B0E94432CA8
:102520006F927F928F929F92AF92BF92CF92DF92E3
:10253000EF92FF920F931F93CF93DF93CDB7DEB748
:10254000C850D1400FB6F894DEBF0FBECDBF7901A1
:10255000B42E862EA82E89E2889E812D1124829584
:102560008F70982F906399839CE989021124202D04
:10257000280D8DEC289F812D1124869586958695B2
:10258000982F90639A8396EF89021124802D622EF2
:10259000820F782E80638B838E010C5F1F4F912CEE
:1025A00040E051E0C801692D6A010E94482C382D95
:1025B000292D343681E008F0822F880F962D9A302D
:1025C000982F58F4343660F0482F5527823069F040
:1025D000CA01372D303071F00EC091E03436A0F7CB
:1025E000892F482F5527823099F782E090E0372DC8
:1025F000303009F4CA01BE016F5F7F4F680F791F49
:1026000043E050E0482759278A2D8030C1F4480123
:1026100000E010E02FEF3FEFC801D801AA0FBB1F69
:10262000AA0FBB1FA80DB91DFD0120833183228392
:10263000338301960F3311058C0178F323E08E016B
:102640000C5F1F4FC8010E94710F8B2D853019F44C
:10265000C7010E944E0AD7018C918170803009F029
:102660006EC08FE00FB6C653DF4F8EAFCA5CD0404E
:102670000FBE80E29FE50FB6CA53DF4F8EAF9FAF0C
:10268000C65CD0400FBEFD013296CE018C5F9E4FDE
:102690005F01BF017D010E94BB0AF7018181823089
:1026A000C1F080E10FB6C653DF4F8EAFCA5CD04099
:1026B0000FBE82E095E00FB6CA53DF4F8EAF9FAFDB
:1026C000C65CD0400FBECE018C5F9E4FB5010E940C
:1026D000BB0A0FB6C753DF4FCEAEDFAEC95CD040EA
:1026E0000FBE0FB6C953DF4F0EAF1FAFC75CD04050
:1026F0000FBE0FB6CA53DF4F1EAEC65CD0400FBE32
:102700004498439ABE016C5F7E4FC5010E94B90791
:10271000449AC85FDE4F0FB6F894DEBF0FBECDBF40
:10272000DF91CF911F910F91FF90EF90DF90CF90AD
:10273000BF90AF909F908F907F906F900895CE0143
:102740008C5F9E4F0E946D2B0E94432CCF92DF9294
:102750001F93FA01182F277023300CF42EC0822FFC
:102760008450823008F43EC0233009F041C0802FED
:102770008127843008F036C0A02FBB27083008F02E
:102780004AC0AA0FBB1FAA0FBB1FAE0FBF1F6C9181
:10279000802F42E097016F010E947E14A12FBB277A
:1027A000183008F038C0AA0FBB1FAA0FBB1FF601D4
:1027B000EA0FFB1F6081812F13C02A952230C0F4DD
:1027C000812F9927183008F020C0880F991F880F93
:1027D000991FE80FF91F9081812F603069F0692FF0
:1027E00041E00CC0862FBF01412F97010E941214B7
:1027F0001F91DF90CF900895692F412D97010E947E
:102800007E141F91DF90CF90089568E070E00E94E1
:10281000652B0E94432C68E070E0CD010E94652B7F
:102820000E94432CAF92BF92DF92EF92FF920F93E0
:102830001F937901142F5B01012F0C7FA02FBB2761
:10284000083008F054C00117D82E482F09F042E094
:10285000AA0FBB1FAA0FBB1FC501A80FB91F6C9100
:10286000802F97010E947E14802F816081174D2D4B
:1028700009F042E0A82FBB27AA0FBB1FAA0FBB1F5E
:102880009501A20FB31F6C9197010E947E14026004
:1028900001174D2D09F042E0A02FBB27AA0FBB1F47
:1028A000AA0FBB1FC501A80FB91F6C91802F9701FC
:1028B0000E947E14812F8360A82FBB278830B8F434
:1028C00081174D2D09F042E0AA0FBB1FAA0FBB1FB5
:1028D000F501EA0FFB1F608197010E947E141F9192
:1028E0000F91FF90EF90DF90BF90AF90089568E058
:1028F00070E0CD010E94652B0E94432C3F924F92C5
:102900005F926F927F928F929F92AF92BF92CF927F
:10291000DF92EF92FF920F931F93CF93DF93CDB788
:10292000DEB7C950D1400FB6F894DEBF0FBECDBFA1
:102930006901142FE82F80E090E08B839C838983CA
:102940009A83603C7CF483E495E48B839C838FE4DE
:102950009EE489839A83CE0101963C0184E090E055
:102960002C0164C02FE2862F88230AF028E760300C
:1029700009F453C0962F990F990B862F8927891B2D
:1029800099E2899F912D112492959F70392F306380
:102990003A833CE993021124402D480F9DEC499F56
:1029A000912D1124969596959695392F30633B83FA
:1029B00036EF93021124902D940F392F30633C830E
:1029C00031E04A3041E008F436C1843651E008F085
:1029D00037C145237FEF843608F038C1403009F411
:1029E00039C1542742E0503009F43AC1903009F41B
:1029F0003BC1842F9927443008F03CC13DE2662357
:102A00000AF03BE2DE011196A80FB91F3C9344E0A7
:102A100050E0481B590B2A0107C080E38983DE017F
:102A2000119681E090E02C013D012C93E295FE2E61
:102A3000E07FEE0FEE0FE074EE2ECE01059640E043
:102A400051E05C01612D4A010E94482C103009F4CC
:102A500044C0312E8E010B5F1F4FC801B301A2018C
:102A6000212D0E94710F832D813009F046C025E091
:102A700030E0C901D901AA0FBB1FAA0FBB1FA00FCD
:102A8000B11F4C9140664C9301962A3331059C014D
:102A900088F325E030E0C901F901EE0FFF1FEE0FCA
:102AA000FF1FE00FF11F43814660438301962A33E5
:102AB00031059C0188F38E010B5F1F4F65E070E0CC
:102AC00042E050E0C8013A010E94391269E370E027
:102AD000C801A3010E94391210C08E010B5F1F4F65
:102AE00065E070E046E350E0C8010E943912C80179
:102AF000B301A20123E00E94710FF601808192E0F0
:102B00009827A92FBB27AF52BA4F8C912E2D922F09
:102B1000905C891708F4B4C08FE00FB6C553DF4F3F
:102B20008EAFCB5CD0400FBE0FB6C953DF4F2EAF78
:102B3000C75CD0400FBE2F630FB6C853DF4F2EAF18
:102B4000C85CD0400FBEDF011296CE018B5F9E4F56
:102B50006D01BD018F010E94BB0AF80181818230A5
:102B600009F430C03F2D307280E10FB6C553DF4FFE
:102B70008EAFCB5CD0400FBE832F86958695869511
:102B80000FB6C953DF4F8EAFC75CD0400FBE932F37
:102B9000915E305E812D21E0391708F0282F20301A
:102BA00009F4892F8695869586950FB6C853DF4F11
:102BB0008EAFC85CD0400FBECE018B5F9E4FB6017A
:102BC0000E94BB0A0FB6C653DF4F8EAE9FAECA5CE3
:102BD000D0400FBE0FB6C853DF4FAEAEBFAEC85C1D
:102BE000D0400FBE0FB6C953DF4F1EAEC75CD040FA
:102BF0000FBE4498439ABE016B5F7E4FC6010E9490
:102C0000B907449AC75FDE4F0FB6F894DEBF0FBE18
:102C1000CDBFDF91CF911F910F91FF90EF90DF908B
:102C2000CF90BF90AF909F908F907F906F905F906C
:102C30004F903F900895412D843651E008F4C9CE5D
:102C4000512D45237FEF843608F4C8CE712D4030D6
:102C500009F0C7CE372F542742E0503009F0C6CED6
:102C6000432F903009F0C5CE432F842F992744304D
:102C700008F4C4CE64E070E00E94652B0E94432CEF
:102C8000CE018B5F9E4F0E946D2B0E94432C6F9252
:102C90007F929F92AF92BF92CF92DF92EF92FF927C
:102CA0000F931F93CF93DF93CDB7DEB7CB58D040B0
:102CB0000FB6F894DEBF0FBECDBF5A01062F182FF6
:102CC000CE01019640E850E07C01612D6A010E942E
:102CD000482C1030812D91F0982E003099F4D501B8
:102CE0008C9182300CF037C0803009F437C0CE01AF
:102CF0008F579F4F0E946D2B0E94432C87E0982E88
:102D0000003069F3103019F4E8EEFDE002C0E3EFA3
:102D1000FDE08BE08E010F571F4FD80195919D93D9
:102D20008150E1F7CE0101966BE370E03C01A80110
:102D30000E94E90E6DE170E0C301A8010E94E90E56
:102D400069E570E0C301A8010E94E90ED5018C91EC
:102D500082300CF4C9CF823009F0C9CF8FE00FB6B2
:102D6000C95BDF4F8EAFC754D0400FBE80E09FE7F6
:102D70000FB6CD5BDF4F8EAF9FAFC354D0400FBEB9
:102D8000F5013296CE018F579F4F8F01BF010E94F0
:102D9000BB0AF50181818230E1F080E10FB6C95BA9
:102DA000DF4F8EAFC754D0400FBE0FB6CC5BDF4FA6
:102DB0009EAEC454D0400FBE0FB6CD5BDF4F9EAE6B
:102DC000C354D0400FBECE018F579F4FB8010E9411
:102DD000BB0A0FB6CA5BDF4FCEAEDFAEC654D040E3
:102DE0000FBE0FB6CC5BDF4FEEAEFFAEC454D0408B
:102DF0000FBE0FB6CD5BDF4F1EAEC354D0400FBE2B
:102E00004498439ABE016F577F4FC8010E94B9078B
:102E1000449AC557DF4F0FB6F894DEBF0FBECDBF43
:102E2000DF91CF911F910F91FF90EF90DF90CF90A6
:102E3000BF90AF909F907F906F9008952F923F9298
:102E40004F925F926F927F928F929F92AF92BF92BA
:102E5000CF92DF920F931F93CF93DF93CDB7DEB75F
:102E6000CA5CD0400FB6F894DEBF0FBECDBFC22EF5
:102E7000D42E762E982ECE01019642EA50E02C01F7
:102E8000612D5A010E94482C8D2C872D8D21782E82
:102E9000813039F4CE01019642EA50E06FEF0E9492
:102EA000482C80E090E00FB6C959DF4F8EAF9FAF3E
:102EB000C756D0400FBE0FB6CB59DF4F8EAF9FAF76
:102EC000C556D0400FBE8C2D823062010CF450C02C
:102ED000823009F46CC0833009F067C3F801818146
:102EE00099E2899F912D112492959F70292F20633B
:102EF0000FB6CB59DF4F2EAFC556D0400FBE2CE9D1
:102F000092021124202D280F9DEC299F912D112430
:102F1000969596959695392F30630FB6CA59DF4F1F
:102F20003EAFC656D0400FBE36EF93021124902D0F
:102F3000920F392F30630FB6C959DF4F3EAFC756D6
:102F4000D0400FBE843631E008F09AC0330F2A30EB
:102F5000232F08F09BC0843608F49CC0432F5527CC
:102F6000323009F49DC09A01903009F49DC09DC093
:102F7000803009F078C0D8013C91303C0CF0A3C0FF
:102F800083E495E40FB6C959DF4F8EAF9FAFC756A4
:102F9000D0400FBE8FE49EE40FB6CB59DF4F8EAF0B
:102FA0009FAFC556D0400FBE44E050E0D9C1F801F4
:102FB0002381203009F4E6C0922F990F990B822FBC
:102FC0008927891B99E2899F912D112492959F70E1
:102FD000392F30630FB6CA59DF4F3EAFC656D040C7
:102FE0000FBE3CE993021124402D480F9DEC499FF0
:102FF000912D1124969596959695392F30630FB69D
:10300000C959DF4F3EAFC756D0400FBE36EF9302CF
:103010001124902D940F392F30630FB6C859DF4F0C
:103020003EAFC856D0400FBE31E04A3041E008F410
:1030300016C1843651E008F017C145236FEF84367E
:1030400008F018C1403009F419C1542742E050304B
:1030500009F41AC1903009F41BC1842F9927443018
:1030600008F41CC1A4C3F8018281803009F495C022
:10307000843609F0AFC086E594E529E43EE491C0CA
:10308000312D330F2A30232F08F465CF21E0843609
:1030900008F064CF322F432F5527323009F063CF29
:1030A00022E030E0903009F49A01DE01AD55BF4FC7
:1030B000A20FB31F43E050E0422753274030510591
:1030C00009F084C172C22FE2832F88230AF028E717
:1030D000303009F4F6C0932F990F990B832F89276D
:1030E000891B99E2899F912D112492959F70492FF8
:1030F00040630FB6CA59DF4F4EAFC656D0400FBE21
:103100004CE994021124502D580F9DEC599F912D9C
:103110001124969596959695492F40630FB6C959F7
:10312000DF4F4EAFC756D0400FBE46EF940211247A
:10313000902D950F492F40630FB6C859DF4F4EAF02
:10314000C856D0400FBE41E05A3051E008F40CC1DF
:10315000843661E008F00DC156237FEF843608F015
:103160000EC1503009F40FC1652752E0603009F4F8
:1031700010C1903009F411C1852F9927543008F4FB
:1031800012C115C380E30FB6CB59DF4F8EAFC556C2
:10319000D0400FBE41E050E0E3C089E497E424E56D
:1031A00032E50FB6CB59DF4F2EAF3FAFC556D040FB
:1031B0000FBE0FB6C959DF4F8EAF9FAFC756D04075
:1031C0000FBEDE01AD55BF4FCD0104962C0144E08A
:1031D00050E000C199E2899F912D112492959F7032
:1031E000292F20630FB6CB59DF4F2EAFC556D040E5
:1031F0000FBE2CE992021124202D280F9DEC299F4F
:10320000912D1124969596959695392F30630FB68A
:10321000CA59DF4F3EAFC656D0400FBE36EF9302BD
:103220001124902D920F392F30630FB6C959DF4FFB
:103230003EAFC756D0400FBE843631E008F04FC0D5
:10324000330F2A30232F08F050C0843608F451C0C1
:10325000432F5527323009F452C0FA0152C0412D94
:10326000843651E008F4E9CE512D45236FEF8436C2
:1032700008F4E8CE612D403009F0E7CE362F542710
:1032800042E0503009F0E6CE432F903009F0E5CE11
:10329000432F842F9927443008F089C244E050E03E
:1032A0003DE222230AF03BE2DE01AD55BF4FA80FFD
:1032B000B91F3C93481B590B4030510509F086C09B
:1032C00074C180E30FB6CB59DF4F8EAFC556D040E7
:1032D0000FBEDE01AD55BF4F41E050E072C0312D51
:1032E000330F2A30232F08F4B0CF21E0843608F0C2
:1032F000AFCF322F432F5527323009F0AECFE2E067
:10330000F0E0903009F4FA01DE01AD55BF4F83E0E3
:1033100090E08E279F278030E1F0EA0FFB1F20818D
:103320000FB6CB59DF4F2EAFC556D0400FBE813000
:1033300081F09D018D011196AF0121812C93D8015F
:10334000823039F0FD013296BF01FA012281FB0182
:103350002083A80FB91F25E22C938395482F55276A
:10336000DE01AD55BF4F32C0512D843661E008F407
:10337000F3CE612D56237FEF843608F4F2CE712D03
:10338000503009F0F1CE472F652752E0603009F048
:10339000F0CE542F903009F0EFCE542F852F99277F
:1033A000543008F004C24DE233230AF04BE2DE0150
:1033B000AD55BF4FA80FB91F4C9344E050E0481BD8
:1033C000590B2C934030510509F4EFC0CD01840F07
:1033D000951F2C0184EF5802902D1124489F212D18
:1033E0001124241B290F322F2227802D9927822B6D
:1033F000932BC496072D003009F46DC004E29E01A2
:1034000029553F4F63E007C00C96D301A201A417D2
:10341000B50709F4CAC07D913D017052709FE12D3E
:103420001124A02DBB27FE2FEE27EA2BFB2BDF015B
:10343000AD55BD40AF3742EFB40708F4BEC1E859FF
:10344000FF4F74E2D90145914D937150E1F7712D11
:1034500003C07C3009F4D8CFE72FFF27DC01AE0F83
:10346000BF1F7395A633B105A0F7B602102D112426
:10347000A69F412D1124410F542F4427A02DBB2777
:10348000A42BB52BA601A40FB51F1D01E69FA12DEE
:103490001124402D5527BA2FAA27A42BB52BA20FF4
:1034A000B31F4C91542F550F5095F1015083FD01DE
:1034B0005181152F111F1127111FA281AA0FA12BB6
:1034C000A095F101A283441F4427441F550F542B9C
:1034D00050955183BECF04E29E0129553F4F63E0D2
:1034E00007C00C96D301A201A417B50709F45DC06B
:1034F0007D913D017052709FE12D1124A02DBB27BD
:10350000FE2FEE27EA2BFB2BDF01AD55BD40AF3779
:1035100042EFB40708F451C1E859FF4F74E2D901F2
:1035200015911D937150E1F7712D03C07C3009F4A2
:10353000D8CFE72FFF27DC01AE0FBF1F7395A6334F
:10354000B105A0F7B602102D1124A69F412D11241C
:10355000410F542F4427A02DBB27A42BB52BA60128
:10356000A40FB51F1D01E69FA12D1124402D552745
:10357000BA2FAA27A42BB52BA20FB31F4C91542FFF
:10358000550FF1015083FD015181152F111F112796
:10359000111FA281AA0FA12BF101A283441F44276E
:1035A000441F550F542B5183C1CF882D8030192DC6
:1035B00009F04FC080E090E023E0FC019202302D42
:1035C0001124829F412D1124430F542F4427A02DF5
:1035D000BB27A42BB52BAC0DBD1D3C9133603C9398
:1035E000319685339105CF0148F380E090E023E0E8
:1035F000DC019202302D1124829F412D1124430FB2
:10360000542F4427602D7727642B752B6C0D7D1D5F
:10361000FB013281306C3283119685339105CD01E7
:1036200040F3C60184569F4F2FEF3FEFFC012283EA
:103630003383248335832D833E832B833C832983EB
:103640003A830FB6C15ADF4F2EAF3FAFCF55D040B0
:103650000FBE812F8770803009F0B7C0D7018C91E1
:1036600082301CF4803021F0B0C0823009F0ADC04F
:10367000012F085E013408F0A8C08FE00FB6C359CF
:10368000DF4F8EAFCD56D0400FBE8AE49FE70FB616
:10369000C759DF4F8EAF9FAFC956D0400FBEF7015D
:1036A0003296CE0189559F4F4F01BF010E94BB0A40
:1036B000F7018181823009F432C0103408F06FC004
:1036C000902F9A95812D21E0091708F060C02030D5
:1036D00009F461C0803408F062C090E10FB6C359AC
:1036E000DF4F9EAFCD56D0400FBE8695869586950E
:1036F0000FB6C659DF4F8EAFCA56D0400FBE1695D3
:10370000169516950FB6C759DF4F1EAFC956D04054
:103710000FBECE0189559F4FB4010E94BB0A0FB660
:10372000C459DF4FAEAEBFAECC56D0400FBE0FB6C1
:10373000C659DF4FCEAEDFAECA56D0400FBE0FB671
:10374000C759DF4F1EAEC956D0400FBE4498439AAA
:10375000BE0169557F4FC4010E94B907449AC65300
:10376000DF4F0FB6F894DEBF0FBECDBFDF91CF9114
:103770001F910F91DF90CF90BF90AF909F908F904F
:103780007F906F905F904F903F902F900895282FDB
:10379000203009F09FCF892F803408F49ECF85ED2B
:1037A00095E06DE070E00E94692B0E94432C64E07C
:1037B00070E00E94652B0E94432C8BE291E065E350
:1037C00070E00E94692B0E94432CCE0189559F4FC7
:1037D0000E946D2B0E94432C8F929F92AF92BF92BA
:1037E000CF92DF92EF92FF920F931F93CF93DF93CD
:1037F000CDB7DEB7C45ED0400FB6F894DEBF0FBEC3
:10380000CDBF4901042F162FB82ECE0101964EEDE3
:1038100050E07C01612D6A010E94482C103009F4AF
:103820001EC0CE0101964EED50E06FEF0E94482C75
:1038300028EC35E002300CF417C0023009F423C044
:10384000033009F031C085E0EEE0FEE0BE016152D8
:103850007F4FDB0195919D938150E1F71FC027ECCD
:1038600035E002300CF0E9CF003009F02EC085E0E1
:10387000EEEFFDE0BE0161527F4FDB0195919D931C
:103880008150E1F70BC085E0E9E0FEE0BE01615246
:103890007F4FDB0195919D938150E1F7D9012C91E8
:1038A000CE01019645E021C084E0E3E1FEE0BE01E7
:1038B00061527F4FDB0195919D938150E1F7D901D2
:1038C0002C91CE01019644E010C086E0E3E0FEE0DA
:1038D000BE0161527F4FDB0195919D938150E1F7CD
:1038E000D9012C91CE01019646E050E00E94F510DE
:1038F0000B2D802F8770803009F0A5C0D4018C91EA
:1039000082301CF4803021F09EC0823009F09BC0D0
:10391000102F185E113408F096C08FE00FB6CB550B
:10392000DF4F8EAFC55AD0400FBE80E099E40FB68E
:10393000CF55DF4F8EAF9FAFC15AD0400FBEF401BD
:103940003296CE0181529F4F5F01BF010E94BB0A98
:10395000F4018181823009F433C0003408F06BC077
:10396000912F9A95812D21E0191708F45DC0282F19
:10397000203009F45CC0803408F05DC090E10FB6DF
:10398000CB55DF4F9EAFC55AD0400FBE869586956A
:1039900086950FB6CE55DF4F8EAFC25AD0400FBEC0
:1039A0000695069506950FB6CF55DF4F0EAFC15A57
:1039B000D0400FBECE0181529F4FB5010E94BB0A7D
:1039C0000FB6CC55DF4FCEAEDFAEC45AD0400FBEDF
:1039D0000FB6CE55DF4FEEAEFFAEC25AD0400FBE8F
:1039E0000FB6CF55DF4F1EAEC15AD0400FBE449820
:1039F000439ABE0161527F4FC5010E94B907449AA4
:103A0000CC51DF4F0FB6F894DEBF0FBECDBFDF91B4
:103A1000CF911F910F91FF90EF90DF90CF90BF90CB
:103A2000AF909F908F900895203009F0A4CF892FF8
:103A3000803408F4A3CF85ED95E06DE070E00E943E
:103A4000692B0E94432CCE0181529F4F0E946D2B07
:103A50000E94432CEF92FF921F938CB58F7B8CBDFD
:103A600081E08093E8052D98259A67EF7FE32BE7A7
:103A70003AE140E050E08BE794E07C014FC0C701A1
:103A80000197F1F72D98CB010197F1F7CB01019741
:103A9000F1F7CB010197F1F7CB010197F1F7CB01DA
:103AA0000197F1F7CB010197F1F7CB010197F1F7FE
:103AB000CB010197F1F7CB010197F1F7CB0101970A
:103AC000F1F7CB010197F1F7CB010197F1F7CB01AA
:103AD0000197F1F7CB010197F1F7CB010197F1F7CE
:103AE000CB010197F1F7CB010197F1F7CB010197DA
:103AF000F1F7CB010197F1F7CB010197F1F7CB017A
:103B00000197F1F7CB010197F1F7CB010197F1F79D
:103B1000CB010197F1F7C9010197F1F72D9AFB014C
:103B20003197F1F7FB013197F1F7FB013197F1F78D
:103B3000FB013197F1F7FB013197F1F7FB01319769
:103B4000F1F7FB013197F1F7FB013197F1F7FB0139
:103B50003197F1F7FB013197F1F7FB013197F1F75D
:103B6000FB013197F1F7FB013197F1F7FB01319739
:103B7000F1F7FB013197F1F7FB013197F1F7FB0109
:103B80003197F1F7FB013197F1F7FB013197F1F72D
:103B9000FB013197F1F7FB013197F1F7FB01319709
:103BA000F1F7FB013197F1F7FB013197F1F7F901DB
:103BB0003197F1F72D98FB013197F1F7FB01319720
:103BC000F1F7FB013197F1F7FB013197F1F7FB01B9
:103BD0003197F1F7FB013197F1F7FB013197F1F7DD
:103BE000FB013197F1F7FB013197F1F7FB013197B9
:103BF000F1F7FB013197F1F7FB013197F1F7FB0189
:103C00003197F1F7FB013197F1F7FB013197F1F7AC
:103C1000FB013197F1F7FB013197F1F7FB01319788
:103C2000F1F7FB013197F1F7FB013197F1F7FB0158
:103C30003197F1F7FB013197F1F7FB013197F1F77C
:103C4000FB013197F1F7F9013197F1F72D9AFB015B
:103C50003197F1F7FB013197F1F7FB013197F1F75C
:103C6000FB013197F1F7FB013197F1F7FB01319738
:103C7000F1F7FB013197F1F7FB013197F1F7FB0108
:103C80003197F1F7FB013197F1F7FB013197F1F72C
:103C9000FB013197F1F7FB013197F1F7FB01319708
:103CA000F1F7FB013197F1F7FB013197F1F7FB01D8
:103CB0003197F1F7FB013197F1F7FB013197F1F7FC
:103CC000FB013197F1F7FB013197F1F7FB013197D8
:103CD000F1F7FB013197F1F7FB013197F1F7F901AA
:103CE0003197F1F72D98FB013197F1F7FB013197EF
:103CF000F1F7FB013197F1F7FB013197F1F7FB0188
:103D00003197F1F7FB013197F1F7FB013197F1F7AB
:103D1000FB013197F1F7FB013197F1F7FB01319787
:103D2000F1F7FB013197F1F7FB013197F1F7FB0157
:103D30003197F1F7FB013197F1F7FB013197F1F77B
:103D4000FB013197F1F7FB013197F1F7FB01319757
:103D5000F1F7FB013197F1F7FB013197F1F7FB0127
:103D60003197F1F7FB013197F1F7FB013197F1F74B
:103D7000FB013197F1F7F9013197F1F72D9AFB012A
:103D80003197F1F7FB013197F1F7FB013197F1F72B
:103D9000FB013197F1F7FB013197F1F7FB01319707
:103DA000F1F7FB013197F1F7FB013197F1F7FB01D7
:103DB0003197F1F7FB013197F1F7FB013197F1F7FB
:103DC000FB013197F1F7FB013197F1F7FB013197D7
:103DD000F1F7FB013197F1F7FB013197F1F7FB01A7
:103DE0003197F1F7FB013197F1F7FB013197F1F7CB
:103DF000FB013197F1F7FB013197F1F7FB013197A7
:103E0000F1F7FB013197F1F7FB013197F1F7F90178
:103E10003197F1F72D98FB013197F1F7FB013197BD
:103E2000F1F7FB013197F1F7FB013197F1F7FB0156
:103E30003197F1F7FB013197F1F7FB013197F1F77A
:103E4000FB013197F1F7FB013197F1F7FB01319756
:103E5000F1F7FB013197F1F7FB013197F1F7FB0126
:103E60003197F1F7FB013197F1F7FB013197F1F74A
:103E7000FB013197F1F7FB013197F1F7FB01319726
:103E8000F1F7FB013197F1F7FB013197F1F7FB01F6
:103E90003197F1F7FB013197F1F7FB013197F1F71A
:103EA000FB013197F1F7F9013197F1F72D9AFA01FA
:103EB000DA0107C01170EF5FFF4FAF4FBF4F1030F7
:103EC00059F0CB010197F1F711E0E937F105A407AB
:103ED000B50780F3112DEECFC7010197F1F72D98AB
:103EE000CB010197F1F7CB010197F1F7CB010197D6
:103EF000F1F7CB010197F1F7CB010197F1F7CB0176
:103F00000197F1F7CB010197F1F7CB010197F1F799
:103F1000CB010197F1F7CB010197F1F7CB010197A5
:103F2000F1F7CB010197F1F7CB010197F1F7CB0145
:103F30000197F1F7CB010197F1F7CB010197F1F769
:103F4000CB010197F1F7CB010197F1F7CB01019775
:103F5000F1F7CB010197F1F7CB010197F1F7CB0115
:103F60000197F1F7CB010197F1F7CB010197F1F739
:103F7000C9010197F1F72D9AFA01DA0107C0117012
:103F8000EF5FFF4FAF4FBF4F103059F0CB0101979C
:103F9000F1F711E0E937F105A407B50780F3112D1A
:103FA000EECFC7010197F1F72D98CB010197F1F7FB
:103FB000CB010197F1F7CB010197F1F7CB01019705
:103FC000F1F7CB010197F1F7CB010197F1F7CB01A5
:103FD0000197F1F7CB010197F1F7CB010197F1F7C9
:103FE000CB010197F1F7CB010197F1F7CB010197D5
:103FF000F1F7CB010197F1F7CB010197F1F7CB0175
:104000000197F1F7CB010197F1F7CB010197F1F798
:10401000CB010197F1F7CB010197F1F7CB010197A4
:10402000F1F7CB010197F1F7CB010197F1F7CB0144
:104030000197F1F7CB010197F1F7C9010197F1F76A
:104040002D9AFA01DA0108C01170EF5FFF4FAF4FF0
:10405000BF4F103009F413CDCB010197F1F711E0F8
:10406000E937F105A407B50778F3112DEDCF0F92CD
:104070001F920FB60F9211242F933F934F935F938C
:104080008F938FB7F8942091E2053091E30540912A
:10409000E4055091E5052E5F3F4F4F4F5F4F309342
:1040A000E3052093E2055093E5054093E4058FBFB7
:1040B0008F915F914F913F912F910F900FBE1F9065
:1040C0000F9018950F921F920FB60F9211242F93F5
:1040D0003F934F935F936F937F938F939F93AF9390
:1040E000BF93CF93DF93EF93FF93CDB7DEB72197C5
:1040F0000FB6F894DEBF0FBECDBF81E08093E80518
:1041000093B19370292F3327A6EEB5E00FB6F8943C
:104110009C910FBEE92FFF27EE0FFF1FEE0FFF1F31
:10412000E22BF32BE95EF04FDE01119691E0259131
:104130002D939150E1F79981292F2F70273008F0A6
:104140003DC0A6EEB5E00FB6F8942C930FBE929545
:104150009F70923021E009F0212D913011F0220F53
:10416000822FA7EEB5E00FB6F8949C910FBE803079
:1041700029F0813011F481E001C08FEF890FA7EEA3
:10418000B5E00FB6F8948C930FBE21960FB6F89455
:10419000DEBF0FBECDBFFF91EF91DF91CF91BF91F9
:1041A000AF919F918F917F916F915F914F913F91CF
:1041B0002F910F900FBE1F900F90189589EB95E0EF
:1041C0006EE070E00E94692B0E94432C0E94EA205E
:1041D0000E94432C2F923F924F925F926F927F9258
:1041E0008F929F92AF92BF92CF92DF92EF92FF9207
:1041F0000F931F93CF93DF93CDB7DEB7CF56D04049
:104200000FB6F894DEBF0FBECDBF8FB7F894909174
:10421000E805903011F00C94342B91E09093E80570
:1042200091E08FBF22E024BD8DE787BD84E085BD8E
:1042300020936E008FB7F89420E030E03093E505CE
:104240002093E4053093E3052093E20549018FBFF5
:104250008FEF8AB9F12CF4B883E085B9FBBA80936B
:104260006B009093680078942D98259A2B98239A48
:1042700024982C9A2A98229A80E58CBD9DBD43985B
:104280003B9A44983C9AFDA680E092E08BA79CA7BD
:1042900042983A9A429A8BE99FE00197F1F7429847
:1042A00087EF9FE3FC013197F1F70197F1F78BE37B
:1042B0009CE10197F1F7429A86E00FB623968EAF04
:1042C00023970FBEFDAECE018B96FC016C0132969A
:1042D000CE01CD96BF013F010E94BB0A88E10FB617
:1042E00023968EAF23970FBE88E090E08DAF9EAFF0
:1042F0005C01CE01CD96B3010E94BB0A84E10FB6EA
:1043000023968EAF23970FBE8FE38DAFCE01CD9650
:10431000B3010E94BB0A86E10FB623968EAF2397A6
:104320000FBEFDAECE01CD96B3010E94BB0A82E165
:104330000FB623968EAF23970FBEFDAECE01CD965E
:10434000B3010E94BB0A8CE10FB623968EAF239770
:104350000FBE11E01DAFCE01CD96B3010E94BB0A86
:104360008EE00FB623968EAF23970FBE1DAF11E0E0
:10437000CE01CD96B3010E94BB0A87E10FB623960A
:104380008EAF23970FBE81E090E08DAF9EAF2C01E2
:10439000CE01CD96B3010E94BB0AFBA683E10FB606
:1043A00023968EAF23970FBE1DAFCE01CD96B301DE
:1043B0000E94BB0A85E10FB623968EAF23970FBEEE
:1043C0001DAFCE01CD96B3010E94BB0A89E10FB6A5
:1043D00023968EAF23970FBE81E092E08DAF9EAF04
:1043E000CE01CD96B3010E94BB0A83E00FB623969F
:1043F0008EAF23970FBE8FE58DAFCE01CD96B30163
:104400000E94BB0A8AE10FB623968EAF23970FBE98
:1044100014E01DAFCE01CD96B3010E94BB0A0FB6CA
:1044200023961EAF23970FBEFDAECE01CD96B301EE
:104430000E94BB0A85E00FB623968EAF23970FBE6E
:10444000FDAECE01CD96B3010E94BB0A89E00FB646
:1044500023968EAF23970FBEFDAECE01CD96B3014E
:104460000E94BB0A86E00FB623968EAF23970FBE3D
:1044700011E01DAFCE01CD961C016B827C82B30191
:104480000E94BB0A1CA711E0C6010E944E0A8DA51E
:104490008AA78BA59CA588A799A73898409A8AAA2D
:1044A0009BAA88AA99AA82E08BAF1FA7FBA682E3EA
:1044B00090E00FB66D968EAF9FAF6D970FBE20EF59
:1044C00030E00FB66B962EAF3FAF6B970FBE0FB6B7
:1044D00069968EAF9FAF69970FBE28EF30E00FB699
:1044E00067962EAF3FAF67970FBE0FB665968EAF3C
:1044F0009FAF65970FBE2CEF30E00FB663962EAFDF
:104500003FAF63970FBE0FB661968EAF9FAF6197B7
:104510000FBE2EEF30E00FB62F962EAF3FAF2F9786
:104520000FBE0FB62D968EAF9FAF2D970FBE0FB655
:104530002B96AEAEBFAE2B970FBE0FB629968EAFA1
:104540009FAF29970FBE24E030E00FB627962EAF1D
:104550003FAF27970FBE0FB625968EAF9FAF25971B
:104560000FBE22E030E00FB623962EAF3FAF239769
:104570000FBE0FB621968EAF9FAF21970FBE4DAEE7
:104580005EAE80E80FB66F968EAF6F970FBE0FB618
:10459000AA968EAE9FAEAA970FBE0FB6A8968EAE05
:1045A0009FAEA8970FBE0FB6A6968EAE9FAEA697EB
:1045B0000FBE0FB6A4968EAE9FAEA4970FBE0FB6D9
:1045C000A2968EAE9FAEA2970FBE0FB6A0968EAEED
:1045D0009FAEA0970FBE8E01085D1F4F81E060E87F
:1045E00045E098010E94901281E08093E805CE0199
:1045F00085599F4FFC013396EF83F887FC01319674
:10460000EB8BFC8B0496898B9A8BF801CF0101967A
:1046100089879A873296ED8BFE8BC60101968B8F28
:104620009C8FC60103968D839E83C60141968F871A
:10463000988BC101809689839A83C60140968DA389
:104640009EA3C60105968D8F9E8F2601C6010496F6
:1046500088A399A33401FAA281E08F8FFFA2FCA264
:104660000FC0A8A1B9A16C91AB8DBC8D8C91AE018E
:10467000435C5F4FFE01B896092F7F010E94A6138D
:104680008FB7F894C090E405D090E505E090E2057E
:10469000F090E3058FBF8E01035C1F4FBE01625A8D
:1046A0007F4FC8019701A6010E94F30B8BB98FA120
:1046B000803021E009F4212DADA1BEA15D013C9126
:1046C00086B18170803041E009F0412D24273230DD
:1046D000A7EEB5E009F038C02170203009F461C0C0
:1046E00021E091E09CA38227370146018FA383E05C
:1046F0009AA1903009F082E0837082300CF073C090
:10470000803009F034C1ED8DFE8DE082F182C282ED
:10471000D3828BA5803009F47DC38130F20109F08A
:104720008DC3A8A1B9A18C9191E089278C9322E037
:10473000EF8AF88EC98EDA8E812D8F8FD5018C91FC
:10474000823009F002C6C3C12170203009F470C064
:1047500031E021E02CA38327370146018FA383E0BA
:104760002AA1203009F082E0837082300CF082C0F0
:10477000803009F0B1C01BA681E0E8A1F9A18083D7
:10478000ED8DFE8DC282D382E082F18282E0D5017E
:104790008C9325E0EF8AF88EC98EDA8E812D8F8F6B
:1047A00091C1970126193709A601480959098CA119
:1047B000803009F49CCF81E02333310520E030E0E4
:1047C0004207530708F4812D8170803009F48FCFA0
:1047D0002FA1822F91E089272AA3912D9CA383707A
:1047E00082300CF48DCF823009F003C1C7012F89CC
:1047F000388D821B930BA601298D3A8D420B530BEA
:1048000061E0E816F906C406D50608F4B5C0612DC6
:10481000603020E030E009F4B4C0603040E050E0A7
:1048200009F0B5C0AC018F8D803009F4B4C0D9C097
:10483000970126193709A601480959098CA180302A
:1048400009F48DCF81E02333310520E030E04207C9
:10485000530708F4812D8170803009F480CF3FA187
:10486000832F21E082273AA3212D2CA3837082304D
:104870000CF47ECF823009F02FC081E02F8D2030E4
:1048800021E02F8F09F028C097014F89588D241BF4
:10489000350BB601498D5A8D640B750BE216F30684
:1048A000C606D706E1E008F4A9C2E12DE03040E0F9
:1048B00050E009F4A8C2E03060E070E009F4B9010A
:1048C000653F780720E030E042075307A7EEB5E0E8
:1048D00008F4812D81708F8F0FB6F8948C910FBEE4
:1048E000803009F41CC08FB7F8940FB6F8942C915F
:1048F0000FBE0FB6F8941C920FBE8FBF203079F018
:104900001BA681E0E8A1F9A18083ED8DFE8DC28216
:10491000D382E082F18282E0D5018C93D2C0917083
:10492000903009F4ADCEAF85B8898C9183958C9386
:10493000E82FFF27E95EF14FDE01A559BF4F81E067
:1049400095919D938150E1F70FB6AD962EADAD9741
:104950000FBE922F9F70A92FBB27A201FA01EA0F69
:10496000FB1F8081873008F05CC1822F1BC28F8DB6
:10497000803009F03EC035C0603020E030E009F002
:104980004CCF9A01603040E050E009F44BCF8F8D5E
:10499000803009F026C081E0453F580740E050E0F4
:1049A0002407350708F0812D81708030D1F4ED8D1A
:1049B000FE8DE082F182C282D38281E08F8F8BA54F
:1049C000803009F45DCE813009F079C2AB8DBC8DA9
:1049D0008C9192E09BA71C92AB81BC811C92A3E0BE
:1049E00074C2ED8DFE8DE082F182C282D382A7EE89
:1049F000B5E00FB6F8948C910FBE803009F432C048
:104A00009FB7F8940FB6F8947C910FBE0FB6F89448
:104A10001C920FBE9FBF703009F424C0ED8DFE8D37
:104A2000E082F182C282D3829BA5903009F419C240
:104A3000913009F02BC2AB8DBC8D9C91A8A1B9A17E
:104A40002C912030F20109F45BC2790F272F222329
:104A50000AF44EC3773008F077E0AB8DBC8D7C93C1
:104A600023E06DC4ED8DFE8D208131814281538123
:104A700028573C4E4F4F5F4F81E02E153F054C05A8
:104A80005D0508F0812D8170803009F4F9CD80E05A
:104A900090E089AF9AAF8FAB98AF8DAB9EAB8BABED
:104AA0009CAB89AB9AAB8FA798AB8DA79EA78BA722
:104AB0009CA781E0EDA1FEA18083AF85B889EC922F
:104AC000DF0125E0F2018C91823009F03EC48BA514
:104AD000803009F47AC0813009F4C3CDAD81BE8144
:104AE0003C91832F99273830AB81BC8108F0C5C534
:104AF0004C91AB8DBC8D3C91880F991F880F991FED
:104B0000080F191FA8A1B9A1AC90822F8350833040
:104B100008F068C0B32E6801F12CE42E403061E04B
:104B200009F46F2D8E01085D1F4F81E0A8010E94DE
:104B300047168E2D833061E008F06F2D8F2DA80170
:104B40000E9447164E2D4E3F2B2D08F099CD8D8695
:104B50009E866B867C8646304BA310F495E09BA323
:104B6000942F9E5F692E88E011C0182B832D602F33
:104B7000412F860174010E941E17832D472D885EE8
:104B80004395962D49172B2D08F068C59BA19417C6
:104B900009F487C5F12C11E0241701E009F00F2D6D
:104BA0009E01285D3F4F382E602F4901742E0E94D0
:104BB000EC1B272D8B2D821781E009F48F2D9A2D68
:104BC000903009F0D2CF1F2DD0CFA981BA816C913E
:104BD000A8A1B9A18C91FE01B896422F9F010E9415
:104BE00090124ECD2A95223008F04ACD353008F08B
:104BF00058C5932F941B812D391721E008F0282FD9
:104C0000203009F4892F98E18902802D1124885FD2
:104C1000FE01B89661E04A2D232F7F010E941E17E6
:104C20002FCDBF01822F8395382F3F70E32FFF27B1
:104C3000E40FF51F3081373008F4B4C0822F8E5F47
:104C4000382F3F70E32FFF27A201E40FF51F3081BB
:104C5000373008F4A7C0822F8D5F382F3F70E32FC5
:104C6000FF27A201E40FF51F3081373008F49AC006
:104C7000822F8C5F382F3F70E32FFF27A201E40FB4
:104C8000F51F3081373008F48DC0822F8B5F382FAD
:104C90003F70E32FFF27A201E40FF51F308137306B
:104CA00008F480C0822F8A5F382F3F70E32FFF27E0
:104CB000A201E40FF51F3081373008F473C0822F52
:104CC000895F382F3F70E32FFF27A201E40FF51F04
:104CD0003081373008F466C0822F885F382F3F70EC
:104CE000E32FFF27A201E40FF51F3081373008F4CE
:104CF00059C0822F875F382F3F70E32FFF27A20113
:104D0000E40FF51F3081373008F44CC0822F865FE6
:104D1000382F3F70E32FFF27A201E40FF51F3081EA
:104D2000373008F43FC0822F855F382F3F70E32F64
:104D3000FF27A201E40FF51F3081373008F432C09D
:104D4000822F845F382F3F70E32FFF27A201E40FEB
:104D5000F51F3081373008F425C0822F835F382F4C
:104D60003F70E32FFF27A201E40FF51F308137309A
:104D7000C8F0822F825F382F3F70E32FFF27A201F8
:104D8000E40FF51F3081373068F0215F822F8F707C
:104D9000E82FFF27A201E40FF51F80818730822FC3
:104DA00008F0ADC2AF85B8899C9193959C93E92F8B
:104DB000FF27E95EF14FDE01A559BF4F91E0259134
:104DC0002D939150E1F70FB6AD963EADAD970FBE66
:104DD0003F703395F20106C0341B83953030F201E9
:104DE00009F4A8C2982F9F70A92FBB27EA0FFB1FB9
:104DF000208141E0273080F3412DEECFE03040E0CC
:104E000050E009F058CDAB01E03060E070E009F40B
:104E100056CD56CDE8A1F9A1808191E08927808304
:104E200022E0EF8AF88EC98EDA8E812D8F8FF20103
:104E3000D5018C91823009F088C249CEAB8DBC8DF2
:104E40008C91853008F02DC4843009F04BC0AD81C1
:104E5000BE818C9191E09BA7AB8DBC8D8C9325E09E
:104E600048C0A8A1B9A19C91903009F4F1C01716CF
:104E70000CF006CC91E09BA77A95773008F077E0AC
:104E8000AB8DBC8D7C9325E0F20159C2A8A1B9A1DC
:104E90009C919030F20109F4EEC0AB8DBC8D9C91D9
:104EA000272F790F22230AF426C131E0791708F45D
:104EB00030C1312D2FEF303009F02EC126C1AD8128
:104EC000BE818C9191E09BA7A1E0B0E0F201AE0F12
:104ED000BF1F8C9391E0A8A1B9A181E08F8F9C9313
:104EE00025E02DC2A8A1B9A18C9191E089278C93CE
:104EF00022E0EF8AF88EC98EDA8E812D8F8F1FC245
:104F0000A92FBB27983008F0C5C3AA0FBB1FAA0F53
:104F1000BB1FA00FB11F3C9109C0372F330F330BBC
:104F200021E03227791B703009F48FC021E0972FE0
:104F300099239FEF0AF442C091E0512D303009F4DB
:104F400041C0432F44230AF42FEF29021124632F79
:104F5000660F660B432F4627461B50150CF038C0D2
:104F60003030312D09F420C0342F3695342B432FA7
:104F700046954695432B342F32953F70342B309510
:104F8000432F46954575341B432F4373369536950D
:104F90003373340F432F4295430F4F703FEF4A95C1
:104FA0001AF036954A95EAF73395472F44230AF4C9
:104FB00032C0303408F43DC030E43BC0512D3030B5
:104FC00009F0BFCF252F432F44230AF4BDCFBDCF17
:104FD0004230312D08F42DC04A95403009F41FC0ED
:104FE000342F3695342B432F46954695432B542F1B
:104FF00052955F70542B5095352F36953575531B50
:10500000352F3373569556955373530F352F32956D
:10501000350F3F7005C0313460F031E40AC038E02C
:1050200047E0431B477031E04A951AF0330F4A9529
:10503000EAF732021124202D2395223008F46DCF97
:10504000302D791B703009F071CF3C9321E077C18E
:10505000A981BA812C91972F720F99230AF4AEC0BF
:1050600031E0721708F4C1C0312D9FEF3030F201EA
:1050700009F0BFC0AFC0AD81BE812C91822F9927AE
:10508000283008F0FAC29C01AB8DBC8D9C91953004
:1050900008F007C397709230ADA1BEA10CF45BC0BD
:1050A000923009F4AEC0933009F0EACAF901EE0F6C
:1050B000FF1FEE0FFF1FE00FF11FAF012181972FA0
:1050C000720F99230AF405C131E07217ADA1BEA198
:1050D00008F0312D9FEF3030F20109F4972FBD0118
:1050E000DA0111969D01923308F4CAC092E3C8C058
:1050F0001BA625E024C1212D31E0971720F0322F87
:10510000303051F402C0303039F4272F243030F4DD
:1051100006C02FEF3030C9F3243008F024E0AB8D07
:10512000BC8D2C93921709F4ABCAAB81BC818C91D6
:10513000281728F42C9324E0912DF20100C18395C7
:105140008217F20108F05BC02A95AB81BC812C93D9
:1051500024E091E0F4C0903009F074C07D01D901E1
:10516000AA0FBB1FAA0FBB1FA00FB11F5A2F6B2F77
:105170009C9104C0721B703009F48BC031E02FEF9A
:10518000472F442362F021E0920F90345CF4903C6E
:1051900064F49FEB492F4395423060F70AC0920FA9
:1051A0009034ACF390E4903CA4F3492F4395423003
:1051B00008F7972F990F990B9327DCCF912D31E0AA
:1051C000271728F0392F3030F20199F403C030301E
:1051D000F20179F4972F9A3F70F49F3108F49EE121
:1051E000A981BA819C9321E0AAC09FEF3030F201DF
:1051F00089F39A3F90F39AEF9F3188F3F1CF23E040
:105200009EC0F901EE0FFF1FEE0FFF1FE00FF11F11
:10521000AF013381932F970F21E0931731E00CF406
:1052200042C0312D772381E00AF041C083278030CE
:1052300009F042C092330CF446C092E39F3C0CF458
:1052400044C044C0F901EE0FFF1FEE0FFF1FE00F37
:10525000F11FAF012281972F720F99230AF445C0E5
:1052600031E0721708F0312D9FEF3030F20109F470
:10527000972FBD01DA0112969D01943608F094E64D
:10528000D9019C9321E0DB018C91823009F41FCC81
:105290005CC0A52FB62F9C9321E0D7018C91823062
:1052A00009F053C014CC772381E00AF4BFCF812DDD
:1052B0008327803009F4BECF990F990B80E8982797
:1052C00092330CF0BACF9F3C0CF49EECFA0193831E
:1052D000F9CB912D31E02717ADA1BEA108F0392FF0
:1052E0003030F20109F0FBCEF9CE912D31E02717D5
:1052F00008F0392F3030F20109F0BBCFB9CF20E0F0
:1053000030E029AF3AAF2FAB38AF2DAB3EAB2BAB74
:105310003CAB29AB3AAB2FA738AB2DA73EA72BA7A9
:105320003CA7EDA1FEA1808121E082278083FB01C3
:105330002081F201AE0FBF1F23952C9326E0ADA173
:10534000BEA18C91823009F4C2CB263009F463C02F
:10535000253009F095C918A50FB6AD961EAEAD97CC
:105360000FBE012F82E00827A02FBB276D01A3539A
:10537000BA4F8C91AB89BC895D018C93A989BA899C
:105380008FE08C93CE0185599F4FED88FE88B70141
:105390000E94BB0AA985BA858C91823009F421C08C
:1053A000003019F0103009F084C1D601A753BA4F6C
:1053B0008C910FB6AD961EAEAD970FBE86958695B5
:1053C0008695AB89BC895D018C93A989BA8980E1F6
:1053D0008C93CE0185599F4FED88FE88B7010E94BE
:1053E000BB0AF50189EB91E080839183EF81F88519
:1053F00080E094E0808391830FB6AD961EAEAD97AA
:105400000FBE4498439ABE0165597F4FC7010E9461
:10541000B907449A35C9A92FBB27903108F033C189
:105420008D869E866B867C86AE0FBF1F1C91990F62
:10543000990F990F0FB6AD969EAFAD970FBE9760BF
:10544000AB89BC896D019C93A989BA898FE08C9343
:10545000CE0185599F4F2D883E88B1010E94BB0A1D
:10546000A985BA858C91823009F42EC0212F220F94
:10547000220F220F203408F01CC1922F995F285F61
:10548000812D31E0291708F0382F30302D883E88E3
:10549000EB89FC8909F4892F803408F00AC11F7157
:1054A0000FB6AD961EAFAD970FBE869586958695C5
:1054B0008083A989BA8980E18C93CE0185599F4F59
:1054C000B1016F010E94BB0AADA1BEA1FC90F19495
:1054D0000FB6AC96FEAEAC970FBECE0186599F4F6D
:1054E000F601808391835F013C01EF81F88581E0C3
:1054F00090E06C01C082D1824F01E12C0FB6AD96D5
:10550000EEAEAD970FBE4498439A8E0105591F4FDA
:10551000C101B8010E94B907449A0FB6AC96FEAE1D
:10552000AC970FBEF50160827182F401C082D18216
:105530000FB6AD96EEAEAD970FBE4498439AC1013B
:10554000B8010E94B907449A0FB6AC96FEAEAC976C
:105550000FBEF50160827182F401C082D1820FB664
:10556000AD96EEAEAD970FBE4498439AC101B80117
:105570000E94B907449A0FB6AC96FEAEAC970FBE28
:10558000F50160827182F401C082D1820FB6AD96BE
:10559000EEAEAD970FBE4498439AC101B8010E9488
:1055A000B907449A0FB6AC96FEAEAC970FBEF501A4
:1055B00060827182F401C082D1820FB6AD96EEAEE8
:1055C000AD970FBE4498439AC101B8010E94B90734
:1055D000449A0FB6AC96FEAEAC970FBEF501608252
:1055E0007182F401C082D1820FB6AD96EEAEAD9756
:1055F0000FBE4498439AC101B8010E94B907449A6A
:105600000FB6AC96FEAEAC970FBEF501608271820C
:10561000F401C082D1820FB6AD96EEAEAD970FBE4B
:105620004498439AC101B8010E94B907449A0FB641
:10563000AC96FEAEAC970FBEF50160827182F401AC
:10564000C082D1820FB6AD96EEAEAD970FBE449834
:10565000439AC101B8010E94B907449A6B847C84C3
:105660008D849E840C9440238FBF80E091E06BE298
:1056700070E00E94692B0E94432C68E070E00E9459
:10568000652B0E94432C60E170E0CD010E94652BE8
:105690000E94432C68E070E0CD010E94652B0E94BF
:1056A000432C89EB95E06EE070E00E94692B0E942C
:1056B000432C85ED95E06DE070E00E94692B0E941F
:1056C000432C0E942A1D0E94432C0E94612B0E94A1
:1056D000432C0E94612B0E94432C0E94612B0E944C
:1056E000432C2F923F924F925F926F927F928F92B4
:1056F0009F92AF92BF92CF92DF92EF92FF920F9361
:105700001F93CF93DF93CDB7DEB726970FB6F894EC
:10571000DEBF0FBECDBF260145015C011B014B83DF
:105720005C833901B701C8010E94F72B8B016C0122
:10573000B4014D825E82C2019101A5010E94F72B46
:105740005B017C01A00EB11EEC1CFD1C00E010E012
:10575000B201C8019301A8010E94F72B6B011C0143
:10576000B401C8014B805C809201A8010E94F72B14
:10577000C60ED71E281E391EC801881F991F89838F
:105780009A83B401C8019301A8010E94F72B4B0131
:105790003C016D817E81C8019201A8010E94F72B16
:1057A0006C0C7D1C621D731D29813A81821F931F21
:1057B0006A0D7B1D8E1D9F1D9401A30126960FB6B9
:1057C000F894DEBF0FBECDBFDF91CF911F910F9137
:1057D000FF90EF90DF90CF90BF90AF909F908F9011
:1057E0007F906F905F904F903F902F900895DB01D6
:1057F0008F939F930E94292CBF91AF91A29F800D00
:10580000911DA39F900DB29F900D11240895A1E2C8
:105810001A2EAA1BBB1BFD010DC0AA1FBB1FEE1F2A
:10582000FF1FA217B307E407F50720F0A21BB30B75
:10583000E40BF50B661F771F881F991F1A9469F7F1
:1058400060957095809590959B01AC01BD01CF014D
:1058500008950E94342CA59F900DB49F900DA49F95
:10586000800D911D11240895A29FB001B39FC00126
:10587000A39F700D811D1124911DB29F700D811D7C
:105880001124911D089581E090E0F8940C944F2C20
:10589000DC0101C06D9341505040E0F70895F89449
:0258A000FFCF38
:1058A20063616C6C656420604F7074696F6E3A3A24
:1058B200756E77726170282960206F6E206120609A
:1058C2004E6F6E65602076616C75655468652073F5
:1058D200756220617272617920676F6573206265FB
:1058E200796F6E642074686520656E64206F66202F
:1058F20074686520736F7572636520617272617975
:10590200617474656D707420746F20646976696463
:1059120065206279207A65726F0000000000000045
:10592200617474656D707420746F2063616C63754B
:105932006C617465207468652072656D61696E645E
:105942006572207769746820612064697669736F73
:1059520072206F66207A65726F00000000000000FE
:105962000000000000000000000000000000000035
:105972000000000000000000000000000000000025
:105982000000000000000000000000000000000015
:105992000000000000000000000000000000000005
:105D52000000000000000000006578706C69636953
:105D6200742070616E696300013F7F3F7F7F3F7FD8
:105D72003F804080405061676520746F6F20686982
:025D8200676850
:00000001FF
